:020000040000FA
:0400000022EF00F0FB
:020008001000E6
:0800180010008368839C1200B4
:1000200083688392839412008368839812008368A4
:10003000839212008368839283981200836812006F
:10004000836A1200956A20EC00F00DEC00F043EC9E
:1000500000F010EC00F043EC00F014EC00F043EC86
:1000600000F017EC00F043EC00F01AEC00F043EC69
:1000700000F01EEC00F043EC00F020EC00F043EC4C
:1000800000F01EEC00F0C80E016E280E006E00009D
:100090000000000000000000000000000000000060
:1000A0000000000000000000000000000000000050
:1000B0000000000000000000000000000000000040
:1000C0000000000000000000000000000000000030
:1000D0000000000000000000000000000000000020
:1000E0000000000000000000000000000000000010
:1000F00000000000002ECBD7012EC7D70000120051
:00000001FF
